:020000020000FC
:100000000FE50DBF08E00EBF2FEF21BB20E022BBA4
:100010000E9492310E940E090E94DF090E9456310F
:100020000E94710F0E9456310E94721C0E94491A50
:100030000E9420180E94F7150E94721C0E94491A03
:100040000E9420180E94F7150E94AE0C0E945812C0
:100050000E945631D0E00E944300DFEF0E9443002F
:100060000E9456310E9422250E9456310E940C2087
:100070000E9456310E946C230E9456310E9409282A
:100080000E949B1EC7CFB0E0AEEB60E06D276D9382
:1000900070E07D277D9380E08D278D9391E09D27F3
:1000A0009D934FEFE3E00E941B2CB0E0A6EB64E0D1
:1000B0006D276D9370E07D277D9380E08D278D9374
:1000C00090E09D279D934FEFE3E00E941B2CB0E052
:1000D000AAEB60E06D276D9370E87D277D9380E04B
:1000E0008D278D9390E09D279D934FEFE3E00E9435
:1000F0001B2CB0E0AAEB60E26D276D9370E87D27C2
:100100007D9380E08D278D9390E09D279D934FEF09
:10011000E3E00E941B2CB0E0A6EB64E06D276D933A
:1001200070E27D277D9380E08D278D9390E09D2761
:100130009D934FEFE3E00E941B2CB0E0AEEB61E03B
:100140006D276D9370E07D277D9380E08D278D93E3
:1001500091E09D279D934FEFE3E00E941B2CB0E0C0
:10016000AEEA64E06D276D9370E07D277D9380E0BB
:100170008D278D9390E09D279D934FEFE3E00E94A4
:100180001B2CB0E0A6EB64E06D276D9372E27D2737
:100190007D9380E08D278D9390E09D279D934FEF79
:1001A000E3E00E941B2CB0E0A2EB64E06D276D93AE
:1001B00070E07D277D9380E08D278D9390E09D27D3
:1001C0009D934FEFE3E00E941B2CB0E0AAEB60E2AE
:1001D0006D276D9370E87D277D9380E48D278D9347
:1001E00090E09D279D934FEFE3E00E941B2CB0E031
:1001F000AEEB61E86D276D9370E07D277D9380E025
:100200008D278D9391E09D279D934FEFE3E00E9412
:100210001B2CB0E0A6EB64E26D276D9372E27D27A4
:100220007D9380E08D278D9390E09D279D934FEFE8
:10023000E3E00E941B2CB0E0AEEA64E06D276D9312
:1002400070E07D277D9380E28D278D9390E09D2740
:100250009D934FEFE3E00E941B2CB0E0A2EB64E023
:100260006D276D9370E27D277D9380E08D278D93C0
:1002700090E09D279D934FEFE3E00E941B2CB0E0A0
:10028000A6EB64E26D276D9372E27D277D9380E497
:100290008D278D9390E09D279D934FEFE3E00E9483
:1002A0001B2CB0E0AEEB61E86D276D9374E07D2709
:1002B0007D9380E08D278D9391E09D279D934FEF57
:1002C000E3E00E941B2CB0E0AAEB60E26D276D9387
:1002D00070E87D277D9380E48D278D9391E09D27A5
:1002E0009D934FEFE3E00E941B2CB0E0AEEA64E088
:1002F0006D276D9374E07D277D9380E28D278D932C
:1003000090E09D279D934FEFE3E00E941B2CB0E00F
:10031000AEEB61E86D276D9374E07D277D9380E8F7
:100320008D278D9391E09D279D934FEFE3E00E94F1
:100330001B2CB0E0A6EB64E26D276D9372E27D2783
:100340007D9382E48D278D9390E09D279D934FEFC1
:10035000E3E00E941B2CB0E0A6EB64E26D276D93F6
:1003600072E37D277D9382E48D278D9390E09D2716
:100370009D934FEFE3E00E941B2CB0E0AAEB60E2FC
:100380006D276D9370E87D277D9380E58D278D9394
:1003900091E09D279D934FEFE3E00E941B2CB0E07E
:1003A000AEEB61E86D276D9374E07D277D9380EC63
:1003B0008D278D9391E09D279D934FEFE3E00E9461
:1003C0001B2CB0E0A2EB64E06D276D9370E27D27FB
:1003D0007D9380E08D278D9391E09D279D934FEF36
:1003E000E3E00E941B2CB0E0A6EB64E26D276D9366
:1003F00072E37D277D9382E48D278D9391E09D2785
:100400009D934FEFE3E00E941B2CB0E0A2EB64E071
:100410006D276D9372E27D277D9380E08D278D930C
:1004200091E09D279D934FEFE3E00E941B2CB0E0ED
:10043000AAEB60E26D276D9371E87D277D9380E5DF
:100440008D278D9391E09D279D934FEFE3E00E94D0
:100450001B2CB0E0AAEB60EA6D276D9371E87D2755
:100460007D9380E58D278D9391E09D279D934FEFA0
:10047000E3E00E941B2CB0E0AEEB61E86D276D93CA
:1004800074E87D277D9380EC8D278D9391E09D27E7
:100490009D934FEFE3E00E941B2CB0E0A6EB64E2DB
:1004A0006D276D9372E37D277D9382EC8D278D936D
:1004B00091E09D279D934FEFE3E00E941B2CB0E05D
:1004C000A6EB64E26D276D9372EB7D277D9382EC42
:1004D0008D278D9391E09D279D934FEFE3E00E9440
:1004E0001B2CB0E0AAEB60EA6D276D9371EA7D27C3
:1004F0007D9380E58D278D9391E09D279D934FEF10
:10050000E3E00E941B2CB0E0AEEA64E86D276D9337
:1005100074E07D277D9380E28D278D9390E09D2769
:100520009D934FEFE3E00E941B2CB0E0AEEB61E83F
:100530006D276D9374E97D277D9380EC8D278D93D6
:1005400091E09D279D934FEFE3E00E941B2CB0E0CC
:10055000A6EB64E66D276D9372EB7D277D9382ECAD
:100560008D278D9391E09D279D934FEFE3E00E94AF
:100570001B2CB0E0A2EB64E06D276D9372E27D2747
:100580007D9380E18D278D9391E09D279D934FEF83
:10059000E3E00E941B2CB0E0AAEB60EA6D276D93AC
:1005A00071EA7D277D9380ED8D278D9391E09D27C6
:1005B0009D934FEFE3E00E941B2CB0E0A6EB64E6B6
:1005C0006D276D9372EB7D277D938AEC8D278D933C
:1005D00091E09D279D934FEFE3E00E941B2CB0E03C
:1005E000AEEB61EC6D276D9374E97D277D9380EC14
:1005F0008D278D9391E09D279D934FEFE3E00E941F
:100600001B2CB0E0AEEA64E86D276D9374E87D279B
:100610007D9380E28D278D9390E09D279D934FEFF2
:10062000E3E00E941B2CB0E0A6EB64EE6D276D9317
:1006300072EB7D277D938AEC8D278D9391E09D272A
:100640009D934FEFE3E00E941B2CB0E0AAEB60EA21
:100650006D276D9379EA7D277D9380ED8D278D93AE
:1006600091E09D279D934FEFE3E00E941B2CB0E0AB
:10067000AEEA64E86D276D9374E87D277D9380E290
:100680008D278D9391E09D279D934FEFE3E00E948E
:100690001B2CB0E0AEEB61EC6D276D9374E97D2708
:1006A0007D9381EC8D278D9391E09D279D934FEF56
:1006B000E3E00E941B2CB0E0A6EB64EE6D276D9387
:1006C00072EF7D277D938AEC8D278D9391E09D2796
:1006D0009D934FEFE3E00E941B2CB0E0A6EB64EE8D
:1006E0006D276D9372EF7D277D938BEC8D278D9316
:1006F00091E09D279D934FEFE3E00E941B2CB0E01B
:10070000AAEB64EA6D276D9379EA7D277D9380EDEE
:100710008D278D9391E09D279D934FEFE3E00E94FD
:100720001B2CB0E0A2EB64E46D276D9372E27D2791
:100730007D9380E18D278D9391E09D279D934FEFD1
:10074000E3E00E941B2CB0E0AEEB61EC6D276D93F3
:1007500074E97D277D9381ED8D278D9391E09D2711
:100760009D934FEFE3E00E941B2CB0E0A6EB65EEFB
:100770006D276D9372EF7D277D938BEC8D278D9385
:1007800091E09D279D934FEFE3E00E941B2CB0E08A
:10079000AEEA64E86D276D9374E87D277D9388E267
:1007A0008D278D9391E09D279D934FEFE3E00E946D
:1007B0001B2CB0E0AAEB66EA6D276D9379EA7D27E2
:1007C0007D9380ED8D278D9391E09D279D934FEF35
:1007D000E3E00E941B2CB0E0A6EB65EE6D276D9365
:1007E00072EF7D277D938BEE8D278D9391E09D2772
:1007F0009D934FEFE3E00E941B2CB0E0AEEB61EC69
:100800006D276D9374E97D277D9385ED8D278D93FD
:1008100091E09D279D934FEFE3E00E941B2CB0E0F9
:10082000A2EB64E46D276D9372E27D277D9382E1F4
:100830008D278D9391E09D279D934FEFE3E00E94DC
:100840001B2CB0E0A6EB65EF6D276D9372EF7D2753
:100850007D938BEE8D278D9391E09D279D934FEF98
:10086000E3E00E941B2CB0E0AAEB66EA6D276D93D3
:1008700079EA7D277D9384ED8D278D9391E09D27E7
:100880009D934FEFE3E00E941B2CB0E0AEEB61ECD8
:100890006D276D9374ED7D277D9385ED8D278D9369
:1008A00091E09D279D934FEFE3E00E941B2CB0E069
:1008B000AEEA64E86D276D9374E87D277D9389E245
:1008C0008D278D9391E09D279D934FEFE3E00E944C
:1008D0001B2CB0E0A2EB64E46D276D9372EA7D27D8
:1008E0007D9382E18D278D9391E09D279D934FEF1E
:1008F000E3E00E941B2CB0E0A6EB65EF6D276D9343
:100900007AEF7D277D938BEE8D278D9391E09D2748
:100910009D934FEFE3E00E941B2CB0E0AEEB69EC3F
:100920006D276D9374ED7D277D9385ED8D278D93D8
:1009300091E09D279D934FEFE3E00E941B2CB0E0D8
:10094000AAEB66EE6D276D9379EA7D277D9384EDA2
:100950008D278D9391E09D279D934FEFE3E00E94BB
:100960001B2CB0E0AEEA64E86D276D9374EA7D2736
:100970007D9389E28D278D9391E09D279D934FEF85
:10098000E3E00E941B2CB0E0A2EB64E46D276D93C2
:1009900072EA7D277D9382E38D278D9391E09D27D9
:1009A0009D934FEFE3E00E941B2CB0E0AEEA64EAB7
:1009B0006D276D9374EA7D277D9389E28D278D9352
:1009C00091E09D279D934FEFE3E00E941B2CB0E048
:1009D000AEEB6BEC6D276D9374ED7D277D9385ED0C
:1009E0008D278D9391E09D279D934FEFE3E00E942B
:1009F0001B2CB0E0AAEB66EE6D276D9379EA7D279C
:100A00007D9386ED8D278D9391E09D279D934FEFEC
:100A1000E3E00E941B2CB0E0A2EB64EC6D276D9329
:100A200072EA7D277D9382E38D278D9391E09D2748
:100A30009D934FEFE3E00E941B2CB0E0AEEA64EA26
:100A40006D276D9374EA7D277D9389EA8D278D93B9
:100A500091E09D279D934FEFE3E00E941B2CB0E0B7
:100A6000A2EB64EC6D276D937AEA7D277D9382E398
:100A70008D278D9391E09D279D934FEFE3E00E949A
:100A80001B2CB0E0AAEB66EE6D276D9379EA7D270B
:100A90007D9387ED8D278D9391E09D279D934FEF5B
:100AA000E3E00E941B2CB0E0AEEB6BEC6D276D9386
:100AB0007CED7D277D9385ED8D278D9391E09D279E
:100AC0009D934FEFE3E00E941B2CB0E0A6EB65EF97
:100AD0006D276D937EEF7D277D938BEE8D278D9314
:100AE00091E09D279D934FEFE3E00E941B2CB0E027
:100AF000AEEA64EA6D276D9374EB7D277D9389EAF6
:100B00008D278D9391E09D279D934FEFE3E00E9409
:100B10001B2CB0E0A2EB64EC6D276D937AEA7D2785
:100B20007D9382EB8D278D9391E09D279D934FEFD1
:100B3000E3E00E941B2CB0E0AEEA6CEA6D276D93F7
:100B400074EB7D277D9389EA8D278D9391E09D2716
:100B50009D934FEFE3E00E941B2CB0E0AEEB6BECFB
:100B60006D276D937CED7D277D9387ED8D278D938C
:100B700091E09D279D934FEFE3E00E941B2CB0E096
:100B8000AAEB67EE6D276D9379EA7D277D9387ED5C
:100B90008D278D9391E09D279D934FEFE3E00E9479
:100BA0001B2CB0E0A6EB65EF6D276D937FEF7D27E3
:100BB0007D938BEE8D278D9391E09D279D934FEF35
:100BC000E3E00E941B2CB0E0A2EB64ED6D276D9377
:100BD0007AEA7D277D9382EB8D278D9391E09D2787
:100BE0009D934FEFE3E00E941B2CB0E0AEEA6CEE69
:100BF0006D276D9374EB7D277D9389EA8D278D9307
:100C000091E09D279D934FEFE3E00E941B2CB0E005
:100C1000AEEB6BEE6D276D937CED7D277D9387EDBD
:100C20008D278D9391E09D279D934FEFE3E00E94E8
:100C30001B2CB0E0AAEB67EE6D276D9379EE7D2754
:100C40007D9387ED8D278D9391E09D279D934FEFA9
:100C5000E3E00E941B2CB0E0A2EB64ED6D276D93E6
:100C60007EEA7D277D9382EB8D278D9391E09D27F2
:100C70009D934FEFE3E00E941B2CB0E0A2EB64EFEA
:100C80006D276D937EEA7D277D9382EB8D278D9373
:100C900091E09D279D934FEFE3E00E941B2CB0E075
:100CA000AEEB6BEE6D276D937DED7D277D9387ED2C
:100CB0008D278D9391E09D279D934FEFE3E00E9458
:100CC0001B2CB0E0AEEA6CEE6D276D9374EB7D27C4
:100CD0007D9389EE8D278D9391E09D279D934FEF16
:100CE000E3E00E941B2CB0E0AAEB6FEE6D276D9342
:100CF00079EE7D277D9387ED8D278D9391E09D275C
:100D00009D934FEFE3E00E941B2CB0E0A6EB65EF54
:100D10006D276D937FEF7D277D938BEF8D278D93CF
:100D200091E09D279D934FEFE3E00E941B2CB0E0E4
:100D3000A2EB64EF6D276D937EEA7D277D9383EBB5
:100D40008D278D9391E09D279D934FEFE3E00E94C7
:100D50001B2CB0E0AEEB6BEE6D276D937DEF7D2726
:100D60007D9387ED8D278D9391E09D279D934FEF88
:100D7000E3E00E941B2CB0E0AEEA6CEE6D276D93B1
:100D800074EF7D277D9389EE8D278D9391E09D27CC
:100D90009D934FEFE3E00E941B2CB0E0A2EB65EFC8
:100DA0006D276D937EEA7D277D9383EB8D278D9351
:100DB00091E09D279D934FEFE3E00E941B2CB0E054
:100DC000AAEB6FEE6D276D937BEE7D277D9387ED0C
:100DD0008D278D9391E09D279D934FEFE3E00E9437
:100DE0001B2CB0E0AEEA6CEE6D276D9374EF7D279F
:100DF0007D938DEE8D278D9391E09D279D934FEFF1
:100E0000E3E00E941B2CB0E0AEEB6FEE6D276D931C
:100E10007DEF7D277D9387ED8D278D9391E09D2735
:100E20009D934FEFE3E00E941B2CB0E0AEEA6DEE25
:100E30006D276D9374EF7D277D938DEE8D278D93B8
:100E400091E09D279D934FEFE3E00E941B2CB0E0C3
:100E5000AAEB6FEE6D276D937BEE7D277D938FED73
:100E60008D278D9391E09D279D934FEFE3E00E94A6
:100E70001B2CB0E0A2EB65EF6D276D937EEA7D271A
:100E80007D9387EB8D278D9391E09D279D934FEF69
:100E9000E3E00E941B2CB0E0A6EB6DEF6D276D9395
:100EA0007FEF7D277D938BEF8D278D9391E09D279D
:100EB0009D934FEFE3E00E941B2CB0E0AEEB6FEE92
:100EC0006D276D937DEF7D277D938FED8D278D931E
:100ED00091E09D279D934FEFE3E00E941B2CB0E033
:100EE000AEEA6DEE6D276D9376EF7D277D938DEEE7
:100EF0008D278D9391E09D279D934FEFE3E00E9416
:100F00001B2CB0E0AAEB6FEE6D276D937BEF7D2776
:100F10007D938FED8D278D9391E09D279D934FEFCE
:100F2000E3E00E941B2CB0E0A2EB65EF6D276D9310
:100F30007EEE7D277D9387EB8D278D9391E09D2716
:100F40009D934FEFE3E00E941B2CB0E0AEEA6FEE02
:100F50006D276D9376EF7D277D938DEE8D278D9395
:100F600091E09D279D934FEFE3E00E941B2CB0E0A2
:100F7000A2EB67EF6D276D937EEE7D277D9387EB68
:100F80008D278D9391E09D279D934FEFE3E00E9485
:100F90001B2CB0E0AAEB6FEF6D276D937BEF7D27E5
:100FA0007D938FED8D278D9391E09D279D934FEF3E
:100FB000E3E00E941B2CB0E0AEEA6FEE6D276D936C
:100FC00076EF7D277D938DEF8D278D9391E09D2783
:100FD0009D934FEFE3E00E941B2CB0E0A2EB67EF84
:100FE0006D276D937EEE7D277D9387EF8D278D9303
:100FF00091E09D279D934FEFE3E00E941B2CB0E012
:10100000A6EB6DEF6D276D937FEF7D277D938FEFBF
:101010008D278D9391E09D279D934FEFE3E00E94F4
:101020001B2CB0E0AEEB6FEF6D276D937DEF7D274E
:101030007D938FED8D278D9391E09D279D934FEFAD
:10104000E3E00E941B2CB0E0AEEA6FEF6D276D93DA
:1010500076EF7D277D938DEF8D278D9391E09D27F2
:101060009D934FEFE3E00E941B2CB0E0A2EB6FEFEB
:101070006D276D937EEE7D277D9387EF8D278D9372
:1010800091E09D279D934FEFE3E00E941B2CB0E081
:10109000AEEA6FEF6D276D937EEF7D277D938DEF29
:1010A0008D278D9391E09D279D934FEFE3E00E9464
:1010B0001B2CB0E0A2EB6FEF6D276D937EEE7D27CA
:1010C0007D938FEF8D278D9391E09D279D934FEF1B
:1010D000E3E00E941B2CB0E0A6EB6FEF6D276D9351
:1010E0007FEF7D277D938FEF8D278D9391E09D2757
:1010F0009D934FEFE3E00E941B2CB0E0AEEB6FEF4F
:101100006D276D937FEF7D277D938FED8D278D93D9
:1011100091E09D279D934FEFE3E00E941B2CB0E0F0
:10112000AAEB6FEF6D276D937FEF7D277D938FED9A
:101130008D278D9391E09D279D934FEFE3E00E94D3
:101140001B2CB0E0AEEA6FEF6D276D937FEF7D272C
:101150007D938DEF8D278D9391E09D279D934FEF8C
:10116000E3E00E941B2CB0E0A2EB6FEF6D276D93C4
:101170007FEE7D277D938FEF8D278D9391E09D27C7
:101180009D934FEFE3E00E941B2CB0E0AEEB6FEFBE
:101190006D276D937FEF7D277D938FEF8D278D9347
:1011A00091E09D279D934FEFE3E00E941B2CB0E060
:1011B000AAEB6FEF6D276D937FEF7D277D938FEF08
:1011C0008D278D9391E09D279D934FEFE3E00E9443
:1011D0001B2CB0E0AEEA6FEF6D276D937FEF7D279C
:1011E0007D938FEF8D278D9391E09D279D934FEFFA
:1011F000E3E00E941B2CB0E0A2EB6FEF6D276D9334
:101200007FEF7D277D938FEF8D278D9391E09D2735
:101210009D934FEFE4E60E941B2C0895B0E0A6EAF0
:1012200020E02D9320E02D9320E02D9320E02D93BE
:1012300020E02D9320E02D9320E02D9320E02D93AE
:1012400020E02D9320E02D9320E02D9320E02D939E
:1012500020E02D9320E02D9320E02D9320E02D938E
:1012600020E02D9320E02D9320E02D9320E02D937E
:1012700020E02D9320E02D9320E02D9320E02D936E
:101280002FEF2D932FEF2D932FEF2D9321E02D9303
:101290004FEFEFE00E941B2CB0E0AAEA21E02C9374
:1012A0000E94350CACEA21E02C930E94350CABEA8D
:1012B00020E12C930E94350CACEA20E22C930E9492
:1012C000350CAAEA28E02C930E94350CACEA22E007
:1012D0002C930E94350CABEA20E22C930E94350C33
:1012E000AAEA24E02C930E94350CABEA20E82C9368
:1012F0000E94350CAAEA20E82C930E94350CAAEA39
:1013000020E12C930E94350CACEA20E12C930E9442
:10131000350CAAEA20E82C930E94C00BABEA21E02E
:101320002C930E94350CABEA20E22C930E94C00B58
:10133000AAEA22E02C930E94350CABEA22E02C931F
:101340000E94350CACEA24E02C930E94350CABEAE9
:1013500020E82C930E94C00BABEA20E42C930E945F
:10136000350CACEA20E22C930E94C00BADEA21E0E0
:101370002C930E94350CABEA22E02C930E94C00B08
:10138000AAEA22E02C930E94C00BACEA20E42C9342
:101390000E94350CACEA22E02C930E94C00BABEA11
:1013A00024E02C930E94350CAAEA20E42C930E949E
:1013B000350CAAEA28E02C930E94C00B0895ACEAF1
:1013C00024E02C930E94C00BABEA20E82C930E94EF
:1013D000350CABEA20E42C930E94C00BACEA20E26F
:1013E0002C930E94350CADEA21E02C930E94C00B97
:1013F000ABEA22E02C930E94350CAAEA22E02C935F
:101400000E94350CACEA20E42C930E94C00BACEA9D
:1014100022E02C930E94350CABEA24E02C930E942E
:10142000C00BAAEA20E42C930E94C00BAAEA28E091
:101430002C930E94350CACEA24E02C930E94350CCE
:10144000ABEA20E82C930E94C00BABEA20E42C937B
:101450000E94350CACEA20E22C930E94C00BADEA4E
:1014600021E02C930E94350CABEA22E02C930E94E1
:10147000C00BAAEA22E02C930E94C00BACEA20E445
:101480002C930E94350CACEA22E02C930E94C00BF6
:10149000ABEA24E02C930E94350CAAEA20E42C93BA
:1014A0000E94350CAAEA28E02C930E94C00BACEAFB
:1014B00024E02C930E94C00BABEA20E82C930E94FE
:1014C000350CABEA20E42C930E94C00BACEA20E27E
:1014D0002C930E94350CADEA21E02C930E94C00BA6
:1014E000ABEA22E02C930E94350CAAEA22E02C936E
:1014F0000E94350CACEA20E42C930E94C00BACEAAD
:1015000022E02C930E94350CABEA24E02C930E943D
:10151000C00BAAEA20E42C930E94C00BAAEA28E0A0
:101520002C930E94350CACEA24E02C930E94350CDD
:10153000ABEA20E82C930E94C00BABEA20E42C938A
:101540000E94350CACEA20E22C930E94C00BADEA5D
:1015500021E02C930E94350CABEA22E02C930E94F0
:10156000C00BAAEA22E02C930E94C00BACEA20E454
:101570002C930E94350CACEA22E02C930E94C00B05
:10158000ABEA24E02C930E94350CAAEA20E42C93C9
:101590000E94350CAAEA28E02C930E94C00BACEA0A
:1015A00024E02C930E94C00BABEA20E82C930E940D
:1015B000350CABEA20E42C930E94C00BACEA20E28D
:1015C0002C930E94350CADEA21E02C930E94C00BB5
:1015D000ABEA22E02C930E94350CAAEA22E02C937D
:1015E0000E94350CACEA20E42C930E94C00BACEABC
:1015F00022E02C930E94350CABEA24E02C930E944D
:10160000C00BAAEA20E42C930E94C00BAAEA28E0AF
:101610002C930E94350CACEA24E02C930E94350CEC
:10162000ABEA20E82C930E94C00BABEA20E42C9399
:101630000E94350CACEA20E22C930E94C00BADEA6C
:1016400021E02C930E94350CABEA22E02C930E94FF
:10165000C00BAAEA22E02C930E94C00BACEA20E463
:101660002C930E94350CACEA22E02C930E94C00B14
:10167000ABEA24E02C930E94350CAAEA20E42C93D8
:101680000E94350CAAEA28E02C930E94C00BACEA19
:1016900024E02C930E94C00BABEA20E82C930E941C
:1016A000350CABEA20E42C930E94C00BACEA20E29C
:1016B0002C930E94350CADEA21E02C930E94C00BC4
:1016C000ABEA22E02C930E94350CAAEA22E02C938C
:1016D0000E94350CACEA20E42C930E94C00BACEACB
:1016E00022E02C930E94350CABEA24E02C930E945C
:1016F000C00BAAEA20E42C930E94C00BAAEA28E0BF
:101700002C930E94350CACEA24E02C930E94350CFB
:10171000ABEA20E82C930E94C00BABEA20E42C93A8
:101720000E94350CACEA20E22C930E94C00BADEA7B
:1017300021E02C930E94350CABEA22E02C930E940E
:10174000C00BAAEA22E02C930E94C00BACEA20E472
:101750002C930E94350CACEA22E02C930E94C00B23
:10176000ABEA24E02C930E94350CAAEA20E42C93E7
:101770000E94350CAAEA28E02C930E94C00B089521
:10178000D5E0B0E0AAEB6C91B0E0AEEB2C91622B0F
:101790006C93B0E0ABEB7C91B0E0AFEB2C91722B93
:1017A0007C93B0E0ACEB8C91B0E0A0EC2C91822B60
:1017B0008C93B0E0ADEB9C91B0E0A1EC2C91922B1E
:1017C0009C93B0E0A6EB6D917D918D919D916D9371
:1017D0007D938D939D93B0E0A2EB6D917D918D9162
:1017E0009D916D937D938D939D93B0E0AAEA6D9149
:1017F0007D918D919D91B0E0A2EB6D937D938D9342
:101800009D93B0E0AAEA2C91B0E0AEEA6C91621B25
:101810006C93B0E0ABEA2C91B0E0AFEA7C91721B24
:101820007C93B0E0ACEA2C91B0E0A0EB8C91821BF1
:101830008C93B0E0ADEA2C91B0E0A1EB9C91921BAF
:101840009C93AAEA20E02D932D932D932D93C1E034
:10185000DC1731F0DA954FEFE7E00E941B2C91CFB7
:101860004FEFE6E10E941B2C0895D5E0B0E0A2EB1B
:101870006C91B0E0AEEA2C91622B6C93B0E0A3EBDC
:101880007C91B0E0AFEA2C91722B7C93B0E0A4EB9A
:101890008C91B0E0A0EB2C91822B8C93B0E0A5EB67
:1018A0009C91B0E0A1EB2C91922B9C93B0E0A6EB25
:1018B0006D917D918D919D91B0E0A2EB6D937D93A3
:1018C0008D939D93B0E0AAEB6D917D918D919D914B
:1018D000B0E0A6EB6D937D938D939D93B0E0AAEA63
:1018E0006D917D918D919D91B0E0AAEB6D937D936B
:1018F0008D939D93B0E0AAEA2C91B0E0AEEB6C9191
:10190000621B6C93B0E0ABEA2C91B0E0AFEB7C9142
:10191000721B7C93B0E0ACEA2C91B0E0A0EC8C910F
:10192000821B8C93B0E0ADEA2C91B0E0A1EC9C91CD
:10193000921B9C93AAEA20E02D932D932D932D9337
:10194000C1E0DC1731F0DA954FEFE7E00E941B2C85
:101950008DCF4FEFE6E10E941B2C0895B0E0AEEA78
:101960002FEF2D932FEF2D932FEF2D932FEF2D93FF
:1019700020E02D9320E02D9320E02D9320E02D9367
:1019800020E02D9320E02D9320E02D9320E02D9357
:1019900020E02D9320E02D9320E02D9320E02D9347
:1019A00020E02D9320E02D9320E02D9320E02D9337
:1019B000DCE0B0E0AEEA2FEB2D932FEF2D932FEF6D
:1019C0002D932FEF2D93B0E0A2EB20E42D9320E098
:1019D0002D9320E02D9320E02D930E944D0FB0E039
:1019E000AEEA2FEB2D932FEF2D932FEF2D932FEFAB
:1019F0002D93B0E0A2EB20E02D9320E02D9320E08A
:101A00002D9320E02D930E944D0FB0E0AEEA2FEA17
:101A10002D932FEF2D932FEF2D932FEF2D93B0E0DC
:101A2000A2EB20E12D9320E02D9320E02D9320E0E8
:101A30002D930E944D0FB0E0AEEA2FEA2D932FEFC9
:101A40002D932FEF2D932FEF2D93B0E0A2EB20E0FD
:101A50002D9320E02D9320E02D9320E02D930E94E4
:101A60004D0FB0E0AEEA2FEA2D932FEF2D932FEE1E
:101A70002D932FEF2D93B0E0A2EB20E02D9320E0EB
:101A80002D9320E12D9320E02D930E944D0FB0E087
:101A9000AEEA2FEE2D932FEF2D932FEE2D932FEFF8
:101AA0002D93B0E0A2EB20E02D9320E02D9320E0D9
:101AB0002D9320E02D930E944D0FB0E0AEEA2FEE63
:101AC0002D932FEB2D932FEE2D932FEF2D93B0E031
:101AD000A2EB20E02D9320E42D9320E02D9320E035
:101AE0002D930E944D0FB0E0AEEA2FEF2D932FEB18
:101AF0002D932FEE2D932FEF2D93B0E0A2EB20E04E
:101B00002D9320E02D9320E02D9320E02D930E9433
:101B10004D0FB0E0AEEA2EEF2D932FEB2D932FEE6D
:101B20002D932FEF2D93B0E0A2EB21E02D9320E039
:101B30002D9320E02D9320E02D930E944D0FB0E0D7
:101B4000AEEA2EEF2D932FEB2D932FEF2D932FEF4A
:101B50002D93B0E0A2EB20E02D9320E02D9320E028
:101B60002D9320E02D930E944D0FB0E0AEEA2EEFB2
:101B70002D932FEB2D932BEF2D932FEF2D93B0E083
:101B8000A2EB20E02D9320E02D9324E02D9320E084
:101B90002D930E944D0FB0E0AEEA2EEF2D932FEF64
:101BA0002D932BEF2D932FEF2D93B0E0A2EB20E0A0
:101BB0002D9320E02D9320E02D9320E02D930E9483
:101BC0004D0FB0E0AEEA2EEF2D932BEF2D932BEFC0
:101BD0002D932FEF2D93B0E0A2EB20E02D9324E086
:101BE0002D9320E02D9320E02D930E944D0FB0E027
:101BF000AEEA2FEF2D932BEF2D932BEF2D932FEF9D
:101C00002D93B0E0A2EB20E02D9320E02D9320E077
:101C10002D9320E02D930E944D0FB0E0AEEA2FEF00
:101C20002D932BEF2D932BEF2D932EEF2D93B0E0D3
:101C3000A2EB20E02D9320E02D9320E02D9321E0D6
:101C40002D930E944D0FB0E0AEEA2FEF2D932BEFB6
:101C50002D932FEF2D932EEF2D93B0E0A2EB20E0EC
:101C60002D9320E02D9320E02D9320E02D930E94D2
:101C70004D0F0E944D0FB0E0AEEA2BEF2D932BEFEE
:101C80002D932FEF2D932EEF2D93B0E0A2EB24E0B8
:101C90002D9320E02D9320E02D9320E02D930E94A2
:101CA0004D0FB0E0AEEA2BEF2D932FEF2D932FEFDA
:101CB0002D932EEF2D93B0E0A2EB20E02D9320E0AA
:101CC0002D9320E02D9320E02D930E944D0FB0E046
:101CD000AEEA2BEF2D932FEF2D932EEF2D932EEFBA
:101CE0002D93B0E0A2EB20E02D9320E02D9321E096
:101CF0002D9320E02D930E944D0FB0E0AEEA2BEF24
:101D00002D932FEF2D932EEF2D932FEF2D93B0E0EA
:101D1000A2EB20E02D9320E02D9320E02D9320E0F6
:101D20002D930E944D0F0E944D0FB0E0AEEA2BEFB5
:101D30002D932EEF2D932EEF2D932FEF2D93B0E0BB
:101D4000A2EB20E02D9321E02D9320E02D9320E0C5
:101D50002D930E944D0FB0E0AEEA2FEF2D932EEFA2
:101D60002D932EEF2D932FEF2D93B0E0A2EB20E0DB
:101D70002D9320E02D9320E02D9320E02D930E94C1
:101D80004D0F0E944D0FB0E0AEEA2FEF2D932EEFD6
:101D90002D932EEB2D932FEF2D93B0E0A2EB20E0AF
:101DA0002D9320E02D9320E42D9320E02D930E948D
:101DB0004D0FB0E0AEEA2FEF2D932EEF2D932FEBCA
:101DC0002D932FEF2D93B0E0A2EB20E02D9320E098
:101DD0002D9320E02D9320E02D930E944D0FB0E035
:101DE000AEEA2FEF2D932EEF2D932FEB2D932FEFA8
:101DF0002D93B0E0A2EB20E02D9320E02D9320E086
:101E00002D9320E02D93B0E0AEEA2FEF2D932FEF2E
:101E10002D932FEB2D932FEF2D93B0E0A2EB20E02D
:101E20002D9320E02D9320E02D9320E02D930E9410
:101E30004D0FC1E0DC1711F0DA95BBCDB0E0AEEA92
:101E40006FEF6D937FEF7D938FEF8D939FEF9D935A
:101E500060E06D9370E07D9380E08D9390E09D93C2
:101E600060E06D9370E07D9380E08D9390E09D93B2
:101E700060E06D9370E07D9380E08D9390E09D93A2
:101E800060E06D9370E07D9380E08D9390E09D9392
:101E900049EBEAE00E941B2C089549EBEAE00E941E
:101EA0001B2CB0E0AAEB6D917D918D919D916D936E
:101EB0007D938D939D93B0E0A6EB6D917D918D9177
:101EC0009D916D937D938D939D93B0E0A2EB6D9169
:101ED0007D918D919D916D937D938D939D93B0E0B8
:101EE0000895CCE0B0E0AEEA21E02D9320E02D9300
:101EF00020E02D9321E02D9322E02D9320E02D93DF
:101F000020E82D9320E02D9324E02D9320E02D93C5
:101F100020E42D9320E02D9328E02D9320E02D93B5
:101F200020E22D9320E02D9320E12D9320E02D93AE
:101F300020E12D9320E02D934FEFEAE00E941B2C2F
:101F4000B0E0AEEA20E22D9320E02D9328E02D931F
:101F500020E02D9321E02D9320E02D9320E02D9380
:101F600021E02D9322E02D9320E02D9320E82D9366
:101F700020E02D9324E02D9320E02D9320E42D9359
:101F800020E02D9328E02D9320E02D9320E22D9347
:101F900020E02D934FEFEAE00E941B2CB0E0AEEA68
:101FA00020E02D9324E42D9320E02D9320E02D9329
:101FB00020E22D9320E02D9328E02D9320E02D9317
:101FC00021E02D9320E02D9320E02D9321E02D930F
:101FD00022E02D9320E02D9320E82D9320E02D93F7
:101FE00024E02D9320E02D9320E42D9320E02D93E9
:101FF0004FEFEAE00E941B2CB0E0AEEA20E02D9308
:1020000022E82D9320E02D9320E02D9320E02D93C6
:1020100024E42D9320E02D9320E02D9320E22D93B6
:1020200020E02D9328E02D9320E02D9321E02D93A7
:1020300020E02D9320E02D9321E02D9322E02D939D
:1020400020E02D9320E82D9320E02D934FEFEAE040
:102050000E941B2CB0E0AEEA20E12D9320E02D93EE
:1020600020E12D9320E02D9320E02D9322E82D9365
:1020700020E02D9320E02D9320E02D9324E42D9358
:1020800020E02D9320E02D9320E22D9320E02D934E
:1020900028E02D9320E02D9321E02D9320E02D9337
:1020A00020E02D9321E02D934FEFEAE00E941B2CBE
:1020B000B0E0AEEA28E02D9320E02D9320E22D93AE
:1020C00020E02D9320E12D9320E02D9320E12D930E
:1020D00020E02D9320E02D9322E82D9320E02D93F6
:1020E00020E02D9320E02D9324E42D9320E02D93E8
:1020F00020E02D9320E22D9320E02D9328E02D93D6
:1021000020E02D934FEFEAE00E941B2CB0E0AEEAF6
:1021100024E02D9320E02D9320E42D9320E02D93B7
:1021200028E02D9320E02D9320E22D9320E02D93A5
:1021300020E12D9320E02D9320E12D9320E02D939D
:1021400020E02D9322E82D9320E02D9320E02D9385
:1021500020E02D9324E42D9320E02D9320E02D9377
:102160004FEFEAE00E941B2CB0E0AEEA22E02D9394
:1021700020E02D9320E82D9320E02D9324E02D9353
:1021800020E02D9320E42D9320E02D9328E02D9343
:1021900020E02D9320E22D9320E02D9320E12D933C
:1021A00020E02D9320E12D9320E02D9320E02D932E
:1021B00022E82D9320E02D9320E02D934FEFEAE0CD
:1021C0000E941B2CB0E0AEEA21E02D9320E02D937D
:1021D00020E02D9321E02D9322E02D9320E02D93FC
:1021E00020E82D9320E02D9324E02D9320E02D93E3
:1021F00020E42D9320E02D9328E02D9320E02D93D3
:1022000020E22D9320E02D9320E12D9320E02D93CB
:1022100020E12D9320E02D934FEFEAE00E941B2C4C
:10222000B0E0AEEA20E22D9320E02D9328E02D933C
:1022300020E02D9321E02D9320E02D9320E02D939D
:1022400021E02D9322E02D9320E02D9320E82D9383
:1022500020E02D9324E02D9320E02D9320E42D9376
:1022600020E02D9328E02D9320E02D9320E22D9364
:1022700020E02D934FEFEAE00E941B2CB0E0AEEA85
:1022800020E02D9324E42D9320E02D9320E02D9346
:1022900020E22D9320E02D9328E02D9320E02D9334
:1022A00021E02D9320E02D9320E02D9321E02D932C
:1022B00022E02D9320E02D9320E82D9320E02D9314
:1022C00024E02D9320E02D9320E42D9320E02D9306
:1022D0004FEFEAE00E941B2CB0E0AEEA20E02D9325
:1022E00022E82D9320E02D9320E02D9320E02D93E4
:1022F00024E42D9320E02D9320E02D9320E22D93D4
:1023000020E02D9328E02D9320E02D9321E02D93C4
:1023100020E02D9320E02D9321E02D9322E02D93BA
:1023200020E02D9320E82D9320E02D934FEFEAE05D
:102330000E941B2CB0E0AEEA20E12D9320E02D930B
:1023400020E12D9320E02D9320E02D9322E82D9382
:1023500020E02D9320E02D9320E02D9324E42D9375
:1023600020E02D9320E02D9320E22D9320E02D936B
:1023700028E02D9320E02D9321E02D9320E02D9354
:1023800020E02D9321E02D934FEFEAE00E941B2CDB
:10239000B0E0AEEA28E02D9320E02D9320E22D93CB
:1023A00020E02D9320E12D9320E02D9320E12D932B
:1023B00020E02D9320E02D9322E82D9320E02D9313
:1023C00020E02D9320E02D9324E42D9320E02D9305
:1023D00020E02D9320E22D9320E02D9328E02D93F3
:1023E00020E02D934FEFEAE00E941B2CB0E0AEEA14
:1023F00024E02D9320E02D9320E42D9320E02D93D5
:1024000028E02D9320E02D9320E22D9320E02D93C2
:1024100020E12D9320E02D9320E12D9320E02D93BA
:1024200020E02D9322E82D9320E02D9320E02D93A2
:1024300020E02D9324E42D9320E02D9320E02D9394
:102440004FEFEAE00E941B2CB0E0AEEA22E02D93B1
:1024500020E02D9320E82D9320E02D9324E02D9370
:1024600020E02D9320E42D9320E02D9328E02D9360
:1024700020E02D9320E22D9320E02D9320E12D9359
:1024800020E02D9320E12D9320E02D9320E02D934B
:1024900022E82D9320E02D9320E02D934FEFEAE0EA
:1024A0000E941B2CD1E0CD1711F0CA951BCD0895C9
:1024B000B0E0AEEA6FEF6D937FEF7D938FEF8D937A
:1024C0009FEF9D9360E06D9370E07D9380E08D932E
:1024D00090E09D9360E06D9370E07D9380E08D933C
:1024E00090E09D9360E06D9370E07D9380E08D932C
:1024F00090E09D9360E06D9370E07D9380E08D931C
:1025000090E09D9349EBEFE00E941B2CB0E0AEEA17
:102510006EEE6D937FEF7D938FEE8D9390E09D93A4
:1025200061E16D9370E07D9380E18D9391E09D93E7
:1025300060E06D9370E07D9380E08D9390E09D93DB
:1025400060E06D9370E07D9380E08D9390E09D93CB
:1025500060E06D9370E07D9380E08D9390E09D93BB
:1025600049EBEFE00E941B2CB0E0AEEA64EC6D9307
:102570007DE77D9387E48D9390E09D936AE26D9370
:1025800072E87D9388EA8D9390E09D9361E16D936D
:1025900070E07D9380E18D9391E09D9360E06D9379
:1025A00070E07D9380E08D9390E09D9360E06D936B
:1025B00070E07D9380E08D9390E09D9349EBEFE098
:1025C0000E941B2CB0E0AEEA60E86D9378E37D9347
:1025D00082E08D9390E09D9364E46D9375E47D9328
:1025E00085E48D9390E09D936AE26D9372E87D930C
:1025F00088EA8D9390E09D9361E16D9370E07D9307
:1026000080E18D9391E09D9360E06D9370E07D9308
:1026100080E08D9390E09D9349EBEFE00E941B2CAE
:10262000B0E0AEEA60E06D9370E17D9380E08D9361
:1026300090E09D9360E86D9378E27D9382E08D93C6
:1026400090E09D9364E46D9375E47D9385E48D93B0
:1026500090E09D936AE26D9372E87D9388EA8D9392
:1026600090E09D9361E16D9370E07D9380E18D93A7
:1026700091E09D9349EBEFE00E941B2CD8E0B0E085
:10268000AEEA60E06D9370E07D9380E08D9390E022
:102690009D9360E06D9370E17D9380E08D9390E079
:1026A0009D9360E86D9378E27D9382E08D9390E056
:1026B0009D9364E46D9375E47D9385E48D9390E040
:1026C0009D936BE36D9372E87D9388EB8D9391E01E
:1026D0009D9349EBEFE00E941B2CB0E0AEEA60E076
:1026E0006D9370E07D9380E08D9390E09D9360E02A
:1026F0006D9370E07D9380E08D9390E09D9360E01A
:102700006D9370E17D9380E08D9390E09D9361E9FE
:102710006D9378E27D9382E18D9391E09D936EE6D7
:102720006D9377EC7D938DEE8D9390E09D9349EBC7
:10273000EFE00E941B2CB0E0AEEA60E06D9370E029
:102740007D9380E08D9390E09D9360E06D9370E0C9
:102750007D9380E08D9390E09D9361E16D9370E0B7
:102760007D9380E18D9391E09D936AE26D9372E990
:102770007D9388EA8D9390E09D9364EC6D937DE763
:102780007D9387E48D9390E09D9349EBEFE00E9469
:102790001B2CB0E0AEEA60E06D9370E07D9380E0CA
:1027A0008D9390E09D9361E16D9370E07D9380E166
:1027B0008D9391E09D936AE26D9372E87D9388EA30
:1027C0008D9390E09D9364E46D9375E47D9385E42F
:1027D0008D9390E09D9360E86D9378E37D9382E024
:1027E0008D9390E09D9349EBEFE00E941B2CB0E0AD
:1027F000AEEA61E16D9370E07D9380E18D9391E0AD
:102800009D936AE26D9372E87D9388EA8D9390E0E0
:102810009D9364E46D9375E47D9385E48D9390E0DE
:102820009D9360E86D9378E27D9382E08D9390E0D4
:102830009D9360E06D9370E17D9380E08D9390E0D7
:102840009D9349EBEFE00E941B2CB0E0AEEA6BE3F6
:102850006D9372E87D9388EB8D9391E09D9364E492
:102860006D9375E47D9385E48D9390E09D9360E88E
:102870006D9378E27D9382E08D9390E09D9360E08C
:102880006D9370E17D9380E08D9390E09D9360E087
:102890006D9370E07D9380E08D9390E09D9349EB84
:1028A000EFE00E941B2CB0E0AEEA6EE66D9377EC91
:1028B0007D938DEE8D9390E09D9361E96D9378E229
:1028C0007D9382E18D9391E09D9360E06D9370E143
:1028D0007D9380E08D9390E09D9360E06D9370E038
:1028E0007D9380E08D9390E09D9360E06D9370E028
:1028F0007D9380E08D9390E09D9349EBEFE00E9403
:102900001B2CB0E0AEEA64EC6D937DE77D9387E429
:102910008D9390E09D936AE26D9372E97D9388EACE
:102920008D9390E09D9361E16D9370E07D9380E1E4
:102930008D9391E09D9360E06D9370E07D9380E0D6
:102940008D9390E09D9360E06D9370E07D9380E0C7
:102950008D9390E09D9349EBEFE00E941B2CB0E03B
:10296000AEEA60E86D9378E37D9382E08D9390E02A
:102970009D9364E46D9375E47D9385E48D9390E07D
:102980009D936AE26D9372E87D9388EA8D9390E05F
:102990009D9361E16D9370E07D9380E18D9391E073
:1029A0009D9360E06D9370E07D9380E08D9390E067
:1029B0009D9349EBEFE00E941B2CB0E0AEEA60E093
:1029C0006D9370E17D9380E08D9390E09D9360E83E
:1029D0006D9378E27D9382E08D9390E09D9364E423
:1029E0006D9375E47D9385E48D9390E09D936AE209
:1029F0006D9372E87D9388EA8D9390E09D9361E1F9
:102A00006D9370E07D9380E18D9391E09D9349EB10
:102A1000EFE00E941B2CC1E0DC1711F0DA952FCEFD
:102A2000B0E0AEEA60E06D9370E07D9380E08D935E
:102A300090E09D9360E06D9370E17D9380E08D93D5
:102A400090E09D9360E86D9378E27D9382E08D93B2
:102A500090E09D9364E46D9375E47D9385E48D939C
:102A600090E09D936AE26D9372E87D9388EA8D937E
:102A700090E09D9349EBEFE00E941B2CB0E0AEEAA2
:102A800060E06D9370E07D9380E08D9390E09D9386
:102A900060E06D9370E07D9380E08D9390E09D9376
:102AA00060E06D9370E17D9380E08D9390E09D9365
:102AB00060E86D9378E27D9382E08D9390E09D9342
:102AC00064E46D9375E47D9385E48D9390E09D932C
:102AD00049EBEFE00E941B2CB0E0AEEA60E06D93A2
:102AE00070E07D9380E08D9390E09D9360E06D9326
:102AF00070E07D9380E08D9390E09D9360E06D9316
:102B000070E07D9380E08D9390E09D9360E06D9305
:102B100070E17D9380E08D9390E09D9360E86D93EC
:102B200078E27D9382E08D9390E09D9349EBEFE016
:102B30000E941B2CB0E0AEEA60E06D9370E07D93E4
:102B400080E08D9390E09D9360E06D9370E07D93C5
:102B500080E08D9390E09D9360E06D9370E07D93B5
:102B600080E08D9390E09D9360E06D9370E07D93A5
:102B700080E08D9390E09D9360E06D9370E17D9394
:102B800080E08D9390E09D9349EBEFE00E941B2C39
:102B9000B0E0AEEA60E06D9370E07D9380E08D93ED
:102BA00090E09D9360E06D9370E07D9380E08D9365
:102BB00090E09D9360E06D9370E07D9380E08D9355
:102BC00090E09D9360E06D9370E07D9380E08D9345
:102BD00090E09D9360E06D9370E07D9380E08D9335
:102BE00090E09D9349EBEFE00E941B2C0895B0E02C
:102BF000AEEA20E12D9320E02D9320E02D9320E0FC
:102C00002D9320E02D9320E02D9320E02D9320E0C4
:102C10002D9320E02D9320E02D9320E02D9320E0B4
:102C20002D9320E02D9320E02D9320E02D9320E0A4
:102C30002D9320E02D9320E02D9320E02D9320E094
:102C40002D9343E7EFE00E941B2CB0E0AEEA28E1B1
:102C50002D9323E02D9320E02D9320E02D9328E168
:102C60002D9323E02D9320E02D9320E02D9320E061
:102C70002D9320E02D9320E02D9320E02D9320E054
:102C80002D9320E02D9320E02D9320E02D9320E044
:102C90002D9320E02D9320E02D9320E02D9343E70A
:102CA000EFE00E941B2CB0E0AEEA2CE92D9322E766
:102CB0002D9320E02D9320E02D9324E12D9320E50A
:102CC0002D9320E02D9320E02D932CE92D9322E7E6
:102CD0002D9320E02D9320E02D9320E02D9320E0F4
:102CE0002D9320E02D9320E02D9320E02D9320E0E4
:102CF0002D9320E02D9320E02D9343E7EFE00E94F9
:102D00001B2CB0E0AEEA2EE52D932AE42D932FE0A4
:102D10002D9320E02D9322E12D9320E02D9329E0A7
:102D20002D9320E02D9322E12D9320E02D9329E097
:102D30002D9320E02D932EE52D932AE42D932FE063
:102D40002D9320E02D9320E02D9320E02D9320E083
:102D50002D9320E02D9343E7EFE00E941B2CB0E081
:102D6000AEEA2FE32D9326EC2D9328EF2D932FE041
:102D70002D9321E12D9320E02D9320E12D932FE041
:102D80002D9321E12D9320E02D9320E12D932FE031
:102D90002D9321E12D9320E02D9320E12D932FE021
:102DA0002D932FE32D9326EC2D9328EF2D932FE0D9
:102DB0002D9343E7EEE30E941B2CB0E0AEEA20E047
:102DC0002D9320E02D9320E02D9320E02D9320EEF5
:102DD0002D9325EA2D9324EF2D9320E02D9320E2CF
:102DE0002D9321E02D9320E92D9320E02D9320E2D7
:102DF0002D9321E02D9320E92D9320E02D9320EEBB
:102E00002D9325EA2D9324EF2D9320E02D9343E776
:102E1000EFE00E941B2CB0E0AEEA20E02D9320E012
:102E20002D9320E02D9320E02D9320E02D9320E0A2
:102E30002D9320E02D9320E02D9320E02D932CE97D
:102E40002D9322E72D9320E02D9320E02D9324E174
:102E50002D9320E52D9320E02D9320E02D932CE958
:102E60002D9322E72D9320E02D9343E7EFE00E947E
:102E70001B2CB0E0AEEA20E02D9320E02D9320E063
:102E80002D9320E02D9320E02D9320E02D9320E042
:102E90002D9320E02D9320E02D9320E02D9320E032
:102EA0002D9320E02D9320E02D9320E82D9321E316
:102EB0002D9320E02D9320E02D9320E82D9321E306
:102EC0002D9320E02D9343E7EFE00E941B2CB0E010
:102ED000AEEA20E02D9320E02D9320E02D9320E01A
:102EE0002D9320E02D9320E02D9320E02D9320E0E2
:102EF0002D9320E02D9320E02D9320E02D9320E0D2
:102F00002D9320E02D9320E02D9320E02D9320E0C1
:102F10002D9320E02D9320E02D9320E12D9320E0B0
:102F20002D9343E7EFE00E941B2CB0E0AEEA20E0D7
:102F30002D9320E02D9320E02D9320E02D9320E091
:102F40002D9320E02D9320E02D9320E02D9320E081
:102F50002D9320E02D9320E02D9320E02D9320E071
:102F60002D9320E82D9320E02D9320E02D9320E059
:102F70002D9320E02D9320E02D9320E02D9343E727
:102F8000EAE00E941B2CB0E0AEEA20E02D9320E0A6
:102F90002D9320E02D9320E02D9320E02D9320E031
:102FA0002D9320E02D9320E02D9320E02D9324E01D
:102FB0002D9320E02D9320E02D9320E02D9320E011
:102FC0002D9320E02D9320E02D9320E02D9320E001
:102FD0002D9320E02D9320E02D9343E7EAE00E941B
:102FE0001B2CB0E0AEEA20E02D9320E02D9320E0F2
:102FF0002D9320E02D9320E22D9320E02D9320E0CF
:103000002D9320E02D9320E02D9320E02D9320E0C0
:103010002D9320E02D9320E02D9320E02D9320E0B0
:103020002D9320E02D9320E02D9320E02D9320E0A0
:103030002D9320E02D9343E7EAE00E941B2C089596
:10304000B0E0AEEA20E02D9320E02D9320E02D9318
:1030500020E02D9320E02D9320E02D9320E02D9370
:1030600020E02D9320E02D9320E02D9320E02D9360
:1030700020E02D9320E02D9320E02D9320E02D9350
:1030800020E02D9320E02D9320E02D9320E02D9340
:1030900021E02D9343E7EFE00E941B2CB0E0AEEA65
:1030A00020E02D9320E02D9320E02D9320E02D9320
:1030B00020E02D9320E02D9320E02D9320E02D9310
:1030C00020E02D9320E02D9320E02D9320E02D9300
:1030D00020E02D9320E02D932CE82D9321E02D93DB
:1030E00020E02D9320E02D932CE82D9321E02D93CB
:1030F00043E7EFE00E941B2CB0E0AEEA20E02D9306
:1031000020E02D9320E02D9320E02D9320E02D93BF
:1031100020E02D9320E02D9320E02D9320E02D93AF
:1031200020E72D932AEC2D9321E02D9320E02D9381
:1031300020E52D9320E42D9321E02D9320E02D9385
:1031400020E72D932AEC2D9321E02D9343E7EFE028
:103150000E941B2CB0E0AEEA20E02D9320E02D93DE
:1031600020E02D9320E02D9320EC2D932BE42D9344
:1031700029EE2D9321E02D9320E42D9322E02D9331
:1031800020E22D9321E02D9320E42D9322E02D9336
:1031900020E22D9321E02D9320EC2D932BE42D9311
:1031A00029EE2D9321E02D9343E7EFE00E941B2CA5
:1031B000B0E0AEEA2FE32D9326EC2D9328EF2D936C
:1031C0002FE02D9321E12D9320E02D9320E12D93ED
:1031D0002FE02D9321E12D9320E02D9320E12D93DD
:1031E0002FE02D9321E12D9320E02D9320E12D93CD
:1031F0002FE02D932FE32D9326EC2D9328EF2D9385
:103200002FE02D9343E7EEE30E941B2CB0E0AEEAE3
:103210002FE22D9325EA2D9327E02D9320E02D9387
:1032200029E02D9320E82D9324E02D9320E02D9389
:1032300029E02D9320E82D9324E02D9320E02D9379
:103240002FE22D9325EA2D9327E02D9320E02D9357
:1032500020E02D9320E02D9320E02D9320E02D936E
:1032600043E7EFE00E941B2CB0E0AEEA27EA2D9383
:103270002CE12D9320E02D9320E02D9325E02D933C
:1032800024E12D9320E02D9320E02D9327EA2D9328
:103290002CE12D9320E02D9320E02D9320E02D9321
:1032A00020E02D9320E02D9320E02D9320E02D931E
:1032B00020E02D9320E02D9320E02D9343E7EFE0D5
:1032C0000E941B2CB0E0AEEA23E62D9320E02D9364
:1032D00020E02D9320E02D9323E62D9320E02D93E5
:1032E00020E02D9320E02D9320E02D9320E02D93DE
:1032F00020E02D9320E02D9320E02D9320E02D93CE
:1033000020E02D9320E02D9320E02D9320E02D93BD
:1033100020E02D9320E02D9343E7EFE00E941B2C4B
:10332000B0E0AEEA21E02D9320E02D9320E02D9334
:1033300020E02D9320E02D9320E02D9320E02D938D
:1033400020E02D9320E02D9320E02D9320E02D937D
:1033500020E02D9320E02D9320E02D9320E02D936D
:1033600020E02D9320E02D9320E02D9320E02D935D
:1033700020E02D9343E7EFE00E941B2CB0E0AEEA83
:1033800022E02D9320E02D9320E02D9320E02D933B
:1033900020E02D9320E02D9320E02D9320E02D932D
:1033A00020E02D9320E02D9320E02D9320E02D931D
:1033B00020E02D9320E02D9320E02D9320E02D930D
:1033C00020E02D9320E02D9320E02D9320E02D93FD
:1033D00043E7EAE00E941B2CB0E0AEEA24E02D9324
:1033E00020E02D9320E02D9320E02D9320E02D93DD
:1033F00020E02D9320E02D9320E02D9320E02D93CD
:1034000020E02D9320E02D9320E02D9320E02D93BC
:1034100020E02D9320E02D9320E02D9320E02D93AC
:1034200020E02D9320E02D9320E02D9343E7EAE068
:103430000E941B2CB0E0AEEA28E02D9320E02D93F3
:1034400020E02D9320E02D9320E02D9320E02D937C
:1034500020E02D9320E02D9320E02D9320E02D936C
:1034600020E02D9320E02D9320E02D9320E02D935C
:1034700020E02D9320E02D9320E02D9320E02D934C
:1034800020E02D9320E02D9343E7EAE00E941B2CDF
:103490000895B0E0AEEA20E02D9320E02D9320E0E7
:1034A0002D9320E02D9320E02D9320E02D9320E01C
:1034B0002D9320E02D9320E02D9320E02D9320E00C
:1034C0002D9320E02D9320E02D9320E02D9320E0FC
:1034D0002D9320E02D9320E02D9320E02D9320E1EB
:1034E0002D9320E02D9343E7EFE00E941B2CB0E0EA
:1034F000AEEA20E02D9320E02D9320E02D9320E0F4
:103500002D9320E02D9320E02D9320E02D9320E0BB
:103510002D9320E02D9320E02D9320E02D9320E0AB
:103520002D9320E02D9320E82D9321E32D9320E08F
:103530002D9320E02D9320E82D9321E32D9320E07F
:103540002D9343E7EFE00E941B2CB0E0AEEA20E0B1
:103550002D9320E02D9320E02D9320E02D9320E06B
:103560002D9320E02D9320E02D9320E02D9320E05B
:103570002D932CE92D9322E72D9320E02D9320E02D
:103580002D9324E12D9320E52D9320E02D9320E031
:103590002D932CE92D9322E72D9320E02D9343E7E3
:1035A000EFE00E941B2CB0E0AEEA20E02D9320E07B
:1035B0002D9320E02D9320E02D9320EE2D9325EAEE
:1035C0002D9324EF2D9320E02D9320E22D9321E0E5
:1035D0002D9320E92D9320E02D9320E22D9321E0DF
:1035E0002D9320E92D9320E02D9320EE2D9325EAB5
:1035F0002D9324EF2D9320E02D9343E7EFE00E94DD
:103600001B2CB0E0AEEA2FE32D9326EC2D9328EF90
:103610002D932FE02D9321E12D9320E02D9320E198
:103620002D932FE02D9321E12D9320E02D9320E188
:103630002D932FE02D9321E12D9320E02D9320E178
:103640002D932FE02D932FE32D9326EC2D9328EF30
:103650002D932FE02D9343E7EEE30E941B2CB0E067
:10366000AEEA2EE52D932AE42D932FE02D9320E052
:103670002D9322E12D9320E02D9329E02D9320E03E
:103680002D9322E12D9320E02D9329E02D9320E02E
:103690002D932EE52D932AE42D932FE02D9320E0FA
:1036A0002D9320E02D9320E02D9320E02D9320E01A
:1036B0002D9343E7EFE00E941B2CB0E0AEEA2CE92B
:1036C0002D9322E72D9320E02D9320E02D9324E1EC
:1036D0002D9320E52D9320E02D9320E02D932CE9D0
:1036E0002D9322E72D9320E02D9320E02D9320E0D1
:1036F0002D9320E02D9320E02D9320E02D9320E0CA
:103700002D9320E02D9320E02D9320E02D9343E78F
:10371000EFE00E941B2CB0E0AEEA28E12D9323E0FD
:103720002D9320E02D9320E02D9328E12D9323E08D
:103730002D9320E02D9320E02D9320E02D9320E089
:103740002D9320E02D9320E02D9320E02D9320E079
:103750002D9320E02D9320E02D9320E02D9320E069
:103760002D9320E02D9320E02D9343E7EFE00E947E
:103770001B2CB0E0AEEA20E12D9320E02D9320E059
:103780002D9320E02D9320E02D9320E02D9320E039
:103790002D9320E02D9320E02D9320E02D9320E029
:1037A0002D9320E02D9320E02D9320E02D9320E019
:1037B0002D9320E02D9320E02D9320E02D9320E009
:1037C0002D9320E02D9343E7EFE00E941B2CB0E007
:1037D000AEEA20E02D9320E02D9320E02D9320E011
:1037E0002D9320E02D9322E02D9320E02D9320E0D7
:1037F0002D9320E02D9320E02D9320E02D9320E0C9
:103800002D9320E02D9320E02D9320E02D9320E0B8
:103810002D9320E02D9320E02D9320E02D9320E0A8
:103820002D9343E7EAE00E941B2CB0E0AEEA20E0D3
:103830002D9320E02D9320E02D9320E02D9320E088
:103840002D9320E02D9320E02D9320E02D9320E078
:103850002D9320E42D9320E02D9320E02D9320E064
:103860002D9320E02D9320E02D9320E02D9320E058
:103870002D9320E02D9320E02D9320E02D9343E71E
:10388000EAE00E941B2CB0E0AEEA20E02D9320E09D
:103890002D9320E02D9320E02D9320E02D9320E028
:1038A0002D9320E02D9320E02D9320E02D9320E018
:1038B0002D9320E02D9320E02D9320E02D9320E008
:1038C0002D9328E02D9320E02D9320E02D9320E0F0
:1038D0002D9320E02D9320E02D9343E7EAE00E9412
:1038E0001B2C0895B0E0AEEA21E02D9320E02D934B
:1038F00020E02D9320E02D9320E02D9320E02D93C8
:1039000020E02D9320E02D9320E02D9320E02D93B7
:1039100020E02D9320E02D9320E02D9320E02D93A7
:1039200020E02D9320E02D9320E02D9320E02D9397
:1039300020E02D9320E02D9343E7EFE00E941B2C25
:10394000B0E0AEEA23E62D9320E02D9320E02D9306
:1039500020E02D9323E62D9320E02D9320E02D935E
:1039600020E02D9320E02D9320E02D9320E02D9357
:1039700020E02D9320E02D9320E02D9320E02D9347
:1039800020E02D9320E02D9320E02D9320E02D9337
:1039900020E02D9343E7EFE00E941B2CB0E0AEEA5D
:1039A00027EA2D932CE12D9320E02D9320E02D93F9
:1039B00025E02D9324E12D9320E02D9320E02D93FD
:1039C00027EA2D932CE12D9320E02D9320E02D93D9
:1039D00020E02D9320E02D9320E02D9320E02D93E7
:1039E00020E02D9320E02D9320E02D9320E02D93D7
:1039F00043E7EFE00E941B2CB0E0AEEA2FE22D93EC
:103A000025EA2D9327E02D9320E02D9329E02D9397
:103A100020E82D9324E02D9320E02D9329E02D9391
:103A200020E82D9324E02D9320E02D932FE22D9379
:103A300025EA2D9327E02D9320E02D9320E02D9370
:103A400020E02D9320E02D9320E02D9343E7EFE03D
:103A50000E941B2CB0E0AEEA2FE32D9326EC2D93B1
:103A600028EF2D932FE02D9321E12D9320E02D932E
:103A700020E12D932FE02D9321E12D9320E02D9334
:103A800020E12D932FE02D9321E12D9320E02D9324
:103A900020E12D932FE02D932FE32D9326EC2D93F2
:103AA00028EF2D932FE02D9343E7EEE30E941B2C8C
:103AB000B0E0AEEA20E02D9320E02D9320E02D939E
:103AC00020E02D9320EC2D932BE42D9329EE2D93C4
:103AD00021E02D9320E42D9322E02D9320E22D93DD
:103AE00021E02D9320E42D9322E02D9320E22D93CD
:103AF00021E02D9320EC2D932BE42D9329EE2D9393
:103B000021E02D9343E7EFE00E941B2CB0E0AEEAEA
:103B100020E02D9320E02D9320E02D9320E02D93A5
:103B200020E02D9320E02D9320E02D9320E02D9395
:103B300020E02D9320E72D932AEC2D9321E02D9367
:103B400020E02D9320E52D9320E42D9321E02D936B
:103B500020E02D9320E72D932AEC2D9321E02D9347
:103B600043E7EFE00E941B2CB0E0AEEA20E02D938B
:103B700020E02D9320E02D9320E02D9320E02D9345
:103B800020E02D9320E02D9320E02D9320E02D9335
:103B900020E02D9320E02D9320E02D9320E02D9325
:103BA00020E02D932CE82D9321E02D9320E02D9300
:103BB00020E02D932CE82D9321E02D9343E7EFE0B7
:103BC0000E941B2CB0E0AEEA20E02D9320E02D9364
:103BD00020E02D9320E02D9320E02D9320E02D93E5
:103BE00020E02D9320E02D9320E02D9320E02D93D5
:103BF00020E02D9320E02D9320E02D9320E02D93C5
:103C000020E02D9320E02D9320E02D9320E02D93B4
:103C100020E02D9321E02D9343E7EFE00E941B2C41
:103C2000B0E0AEEA20E02D9320E02D9320E02D932C
:103C300020E02D9320E02D9320E02D9320E02D9384
:103C400020E02D9320E02D9320E02D9320E02D9374
:103C500020E02D9320E02D9320E02D9320E02D9364
:103C600020E02D9320E02D9320E02D9320E82D934C
:103C700020E02D9343E7EAE00E941B2CB0E0AEEA7F
:103C800020E02D9320E02D9320E02D9320E02D9334
:103C900020E02D9320E02D9320E02D9320E02D9324
:103CA00020E02D9320E02D9320E02D9320E02D9314
:103CB00020E02D9320E02D9320E02D9320E02D9304
:103CC00020E02D9320E02D9320E42D9320E02D93F0
:103CD00043E7EAE00E941B2CB0E0AEEA20E02D931F
:103CE00020E02D9320E02D9320E02D9320E02D93D4
:103CF00020E02D9320E02D9320E02D9320E02D93C4
:103D000020E02D9320E02D9320E02D9320E02D93B3
:103D100020E02D9320E02D9320E02D9320E02D93A3
:103D200020E02D9320E22D9322E02D9343E7EAE05B
:103D30000E941B2C0895D2E0B0E0AEEA6FEF6D93C5
:103D40007FEF7D938FEF8D939FEF9D936FEF6D933B
:103D50007FEF7D938FEF8D939FEF9D936FEF6D932B
:103D60007FEF7D938FEF8D939FEF9D936FEF6D931B
:103D70007FEF7D938FEF8D939FEF9D936FEF6D930B
:103D80007FEF7D938FEF8D939FEF9D9343E2E4E070
:103D90000E941B2C44E1E8E00E941B2C43E2E4E07B
:103DA0000E941B2C44E1EFEF0E941B2C44E1EFEF3B
:103DB0000E941B2C45E5E8E00E941B2C43E2E4E056
:103DC0000E941B2C44E1E8E00E941B2C43E2E4E04B
:103DD0000E941B2C44E1E8E00E941B2C45E5E8E032
:103DE0000E941B2C44E1E8E00E941B2C43E2E4E02B
:103DF0000E941B2C44E1EFEF0E941B2C44E1EFEFEB
:103E00000E941B2C43E2E4E00E941B2C44E1E8E00A
:103E10000E941B2C45E5E8E00E941B2C44E1E8E0F1
:103E20000E941B2C43E2E4E00E941B2C44E1EFEFD4
:103E30000E941B2C44E1EFEF0E941B2C45E5E8E0BB
:103E40000E941B2C43E2E4E00E941B2C44E1E8E0CA
:103E50000E941B2C45E5E8E00E941B2C43E2E4E0B5
:103E60000E941B2C44E1E8E00E941B2CC1E0DC17FF
:103E700011F0DA9561CF45E5E8E00E941B2C4BE993
:103E8000E4E00E941B2C45E5E8E00E941B2C4DEC71
:103E9000E8E00E941B2C4BE9E4E00E941B2C4FEF52
:103EA000EFEF0E941B2CB0E0AEEA60E06D9370E093
:103EB0007D9380E08D9390E09D936FEF6D937FEF06
:103EC0007D938FEF8D939FEF9D936FEF6D937FEFBA
:103ED0007D938FEF8D939FEF9D936FEF6D937FEFAA
:103EE0007D938FEF8D939FEF9D936FEF6D937FEF9A
:103EF0007D938FEF8D939FEF9D934FEFE1E10E94B4
:103F00001B2CB0E0AEEA60E06D9370E07D9380E042
:103F10008D9390E09D9360E06D9370E07D9380E0E1
:103F20008D9390E09D936FEF6D937FEF7D938FEF77
:103F30008D939FEF9D936FEF6D937FEF7D938FEF49
:103F40008D939FEF9D936FEF6D937FEF7D938FEF39
:103F50008D939FEF9D934FEFE1E10E941B2CB0E00A
:103F6000AEEA60E06D9370E07D9380E08D9390E029
:103F70009D9360E06D9370E07D9380E08D9390E081
:103F80009D9360E06D9370E07D9380E08D9390E071
:103F90009D936FEF6D937FEF7D938FEF8D939FEFE9
:103FA0009D936FEF6D937FEF7D938FEF8D939FEFD9
:103FB0009D934FEFE1E10E941B2CB0E0AEEA60E080
:103FC0006D9370E07D9380E08D9390E09D9360E031
:103FD0006D9370E07D9380E08D9390E09D9360E021
:103FE0006D9370E07D9380E08D9390E09D9360E011
:103FF0006D9370E07D9380E08D9390E09D936FEFE3
:104000006D937FEF7D938FEF8D939FEF9D934FEF98
:10401000E1E10E941B2C0895B0E0AEEA60E06D93F0
:1040200070E07D9380E08D9390E09D9360E06D93D0
:1040300070E07D9380E08D9390E09D9360E06D93C0
:1040400070E07D9380E08D9390E09D9360E06D93B0
:1040500070E07D9380E08D9390E09D9360E06D93A0
:1040600070E07D9380E08D9390E09D934FEFE1E0D1
:104070000E941B2CDEEBB0E0AD2F61E06D9370E091
:104080007D9380E08D9390E09D9349EBECE00E945E
:104090001B2CB0E0AD2F61E26D9370E07D9380E06A
:1040A0008D9390E09D9349EBECE00E941B2CB0E0D7
:1040B000AD2F61E26D9374E07D9380E08D9390E08D
:1040C0009D9349EBECE00E941B2CB0E0AD2F61E228
:1040D0006D9374E87D9380E08D9390E09D9349EB20
:1040E000ECE00E941B2CB0E0AD2F61E26D9374E810
:1040F0007D9380E18D9390E09D9349EBECE00E94ED
:104100001B2CB0E0AD2F61E26D9374E87D9380E3EA
:104110008D9390E09D9349EBECE00E941B2CB0E066
:10412000AD2F61E26D9374E87D9380E78D9390E00D
:104130009D9349EBECE00E941B2CB0E0AD2F61E2B7
:104140006D9374E87D9380EF8D9390E09D9349EBA0
:10415000ECE00E941B2CB0E0AD2F61E26D9374E89F
:104160007D9380EF8D9391E09D9349EBECE00E946D
:104170001B2CB0E0AD2F61E26D9374E87D9388EF66
:104180008D9391E09D9349EBECE00E941B2CB0E0F5
:10419000AD2F61E26D9374EC7D9388EF8D9391E088
:1041A0009D9349EBECE00E941B2CB0E0AD2F61E247
:1041B0006D9376EC7D9388EF8D9391E09D9349EB21
:1041C000ECE00E941B2CB0E0AD2F61E36D9376EC28
:1041D0007D9388EF8D9391E09D9349EBECE00E94F5
:1041E0001B2CB0E0AD2F69E36D9376EC7D9388EFE7
:1041F0008D9391E09D9349EBECE00E941B2CB0E085
:10420000AD2F6DE36D9376EC7D9388EF8D9391E008
:104210009D9349EBECE00E941B2CB0E0AD2F6FE3C7
:104220006D9376EC7D9388EF8D9391E09D9349EBB0
:10423000ECE00E941B2C24E0D21B2AEAD21709F0E2
:104240001ACFB0E0AEEA6FE76D9376EC7D9388EF1E
:104250008D9391E09D9349EBECE00E941B2CB0E024
:10426000AEEA6FE76D937EEC7D9388EF8D9391E0DE
:104270009D9349EBECE00E941B2CB0E0AEEA6FE7A7
:104280006D937EEC7D9389EF8D9391E09D9349EB47
:10429000ECE00E941B2CB0E0AEEA6FE76D937EEC81
:1042A0007D938BEF8D9391E09D9349EBECE00E9421
:1042B0001B2CB0E0AEEA6FE76D937EEC7D938FEF41
:1042C0008D9391E09D9349EBECE00E941B2CB0E0B4
:1042D000AEEA6FE76D937EEE7D938FEF8D9391E065
:1042E0009D9349EBECE00E941B2CB0E0AEEA6FE737
:1042F0006D937FEE7D938FEF8D9391E09D9349EBCE
:10430000ECE00E941B2CB0E0AEEA6FEF6D937FEE05
:104310007D938FEF8D9391E09D9349EBECE00E94AC
:104320001B2CB0E0AEEA6FEF6D937FEF7D938FEFC4
:104330008D9391E09D9349EBE4E60E941B2CB0E045
:10434000AEEA6FEF6D937FEF7D938FEF8D939FEFCD
:104350009D936FE36D9376EC7D9388EF8D9391E061
:104360009D936FE36D9376EC7D9388EF8D9391E051
:104370009D936FE36D9376EC7D9388EF8D9391E041
:104380009D936FE36D9376EC7D9388EF8D9391E031
:104390009D9349EBEFE00E941B2CB0E0AEEA6EEE7D
:1043A0006D937FEF7D938FEE8D9390E09D9361E110
:1043B0006D9370E07D9380E18D9391E09D936FE329
:1043C0006D9376EC7D9388EF8D9391E09D936FE3F1
:1043D0006D9376EC7D9388EF8D9391E09D936FE3E1
:1043E0006D9376EC7D9388EF8D9391E09D9349EBEF
:1043F000EFE00E941B2CB0E0AEEA64EC6D937DE729
:104400007D9387E48D9390E09D936AE26D9372E8CB
:104410007D9388EA8D9390E09D9361E16D9370E0C8
:104420007D9380E18D9391E09D936FE36D9376ECA6
:104430007D9388EF8D9391E09D936FE36D9376EC80
:104440007D9388EF8D9391E09D9349EBEFE00E947F
:104450001B2CB0E0AEEA60E86D9378E37D9382E0D8
:104460008D9390E09D9364E46D9375E47D9385E472
:104470008D9390E09D936AE26D9372E87D9388EA54
:104480008D9390E09D9361E16D9370E07D9380E169
:104490008D9391E09D936FE36D9376EC7D9388EF20
:1044A0008D9391E09D9349EBEFE00E941B2CB0E0CF
:1044B000AEEA60E06D9370E17D9380E08D9390E0D3
:1044C0009D9360E86D9378E27D9382E08D9390E018
:1044D0009D9364E46D9375E47D9385E48D9390E002
:1044E0009D936AE26D9372E87D9388EA8D9390E0E4
:1044F0009D9361E16D9370E07D9380E18D9391E0F8
:104500009D9349EBEFE00E941B2CB0E0AEEA60E027
:104510006D9370E07D9380E08D9390E09D9360E0DB
:104520006D9370E17D9380E08D9390E09D9360E8C2
:104530006D9378E27D9382E08D9390E09D9364E4A7
:104540006D9375E47D9385E48D9390E09D936AE28D
:104550006D9372E87D9388EA8D9390E09D9349EB8B
:10456000EFE00E941B2CB0E0AEEA60E06D9370E0DB
:104570007D9380E08D9390E09D9360E06D9370E07B
:104580007D9380E08D9390E09D9360E06D9370E16A
:104590007D9380E08D9390E09D9360E86D9378E249
:1045A0007D9382E08D9390E09D9364E46D9375E438
:1045B0007D9385E48D9390E09D9349EBEFE00E941D
:1045C0001B2CB0E0AEEA60E06D9370E07D9380E07C
:1045D0008D9390E09D9360E06D9370E07D9380E01B
:1045E0008D9390E09D9360E06D9370E07D9380E00B
:1045F0008D9390E09D9360E06D9370E17D9380E0FA
:104600008D9390E09D9360E86D9378E27D9382E0D6
:104610008D9390E09D9349EBEFE00E941B2CB0E05E
:10462000AEEA60E06D9370E07D9380E08D9390E062
:104630009D9360E06D9370E07D9380E08D9390E0BA
:104640009D9360E06D9370E07D9380E08D9390E0AA
:104650009D9360E06D9370E07D9380E08D9390E09A
:104660009D9360E06D9370E17D9380E08D9390E089
:104670009D9349EBEFE00E941B2CB0E0AEEA60E0B6
:104680006D9370E07D9380E08D9390E09D9360E06A
:104690006D9370E07D9380E08D9390E09D9360E05A
:1046A0006D9370E07D9380E08D9390E09D9360E04A
:1046B0006D9370E07D9380E08D9390E09D9360E03A
:1046C0006D9370E07D9380E08D9390E09D9349EB36
:1046D000EFE00E941B2C0895B0E0AAEA20E02D93A1
:1046E00020E02D9320E02D9320E02D9320E02D93CA
:1046F00020E02D9320E02D9320E02D9320E02D93BA
:1047000020E02D9320E02D9320E02D9320E02D93A9
:1047100020E02D9320E02D9320E02D9320E02D9399
:1047200020E02D9320E02D9320E02D9320E02D9389
:1047300020E02D9320E02D9320E02D93D8E0B0E0F1
:10474000AEEA20E02D9320E02D9324E02D9320E08D
:104750002D930E94F524B0E0AEEA20E02D9320E0F6
:104760002D9322E02D9320E02D930E94F524B0E0BC
:10477000AEEA20E02D9320E02D9321E02D9320E060
:104780002D930E94F524B0E0AEEA20E02D9328E0BE
:104790002D9320E02D9320E02D930E94F524B0E08E
:1047A000AEEA20E42D9320E02D9320E02D9320E02D
:1047B0002D930E94F524B0E0AEEA20E82D9320E08E
:1047C0002D9320E02D9320E02D930E94F524B0E05E
:1047D000AEEA20E02D9321E02D9320E02D9320E000
:1047E0002D930E94F524B0E0AEEA20E02D9320E264
:1047F0002D9320E02D9320E02D930E94F524B0E02E
:10480000AEEA20E02D9320E02D9324E02D9320E0CC
:104810002D930E94F524B0E0AEEA20E02D9320E035
:104820002D9322E02D9320E02D930E94F524B0E0FB
:10483000AEEA20E02D9320E02D9321E02D9320E09F
:104840002D930E94F524B0E0AEEA20E02D9328E0FD
:104850002D9320E02D9320E02D930E94F524B0E0CD
:10486000AEEA20E42D9320E02D9320E02D9320E06C
:104870002D930E94F524B0E0AEEA20E82D9320E0CD
:104880002D9320E02D9320E02D930E94F524B0E09D
:10489000AEEA20E02D9321E02D9320E02D9320E03F
:1048A0002D930E94F524B0E0AEEA20E02D9320E2A3
:1048B0002D9320E02D9320E02D930E94F524B0E06D
:1048C000AEEA20E02D9320E02D9324E02D9320E00C
:1048D0002D930E94F524B0E0AEEA20E02D9320E075
:1048E0002D9322E02D9320E02D930E94F524B0E03B
:1048F000AEEA20E02D9320E02D9321E02D9320E0DF
:104900002D930E94F524B0E0AEEA20E02D9328E03C
:104910002D9320E02D9320E02D930E94F524B0E00C
:10492000AEEA20E42D9320E02D9320E02D9320E0AB
:104930002D930E94F524B0E0AEEA20E82D9320E00C
:104940002D9320E02D9320E02D930E94F524B0E0DC
:10495000AEEA20E02D9321E02D9320E02D9320E07E
:104960002D930E94F524C1E0DC1711F0DA95E7CE13
:10497000B0E0AEEA20E02D9320E02D9320E02D93CF
:1049800020E02D930E94F524B0E0AEEA20E02D93C4
:1049900020E02D9320E02D9320E02D930E94F5241C
:1049A000B0E0AEEA20E02D9320E02D9320E02D939F
:1049B00020E02D930E94F524B0E0AEEA20E02D9394
:1049C00020E02D9320E02D9320E02D930E94F524EC
:1049D000B0E0AEEA20E02D9320E02D9320E02D936F
:1049E00020E02D930E94F524089544E6EBE00E9418
:1049F0001B2CB0E0AAEB6D917D918D919D916D93F3
:104A00007D938D939D93B0E0A6EB6D917D918D91FB
:104A10009D916D937D938D939D93B0E0A2EB6D91ED
:104A20007D918D919D916D937D938D939D93B0E03C
:104A3000AEEA6D917D918D919D916D937D938D9356
:104A40009D930895DCE0B0E0AEEA60E06D9370E61F
:104A50007D9380E08D9391E09D9360E06D9370E095
:104A60007D9380E08D9391E09D9360E06D9370E085
:104A70007D9380E08D9390E09D9360E16D9370E075
:104A80007D9380E08D9390E09D9364E96D9370E059
:104A90007D9380E08D9390E09D934FEFECE00E943A
:104AA0001B2CB0E0AEEA60E06D9370E37D9380E094
:104AB0008D9390E09D9360E06D9370E07D9380E036
:104AC0008D9391E09D9360E16D9370E07D9380E024
:104AD0008D9391E09D9360E16D9370E07D9380E014
:104AE0008D9390E09D9360E86D9370E17D9380E0FD
:104AF0008D9390E09D934FEFECE00E941B2CB0E073
:104B0000AEEA60E06D9378E17D9380E08D9390E074
:104B10009D9360E16D9370E07D9380E08D9390E0D4
:104B20009D9360E16D9370E07D9380E08D9391E0C3
:104B30009D9360E06D9370E07D9380E08D9391E0B4
:104B40009D9360E06D9370E17D9382E08D9390E0A2
:104B50009D934FEFECE00E941B2CB0E0AEEA60E1C9
:104B60006D937CE07D9380E08D9390E09D9360E178
:104B70006D9370E07D9380E08D9390E09D9360E075
:104B80006D9370E07D9380E08D9390E09D9360E065
:104B90006D9370E07D9380E08D9391E09D9360E054
:104BA0006D9370E07D9382E48D9391E09D934FEF40
:104BB000ECE00E941B2CB0E0AEEA60E16D9375E082
:104BC0007D9380E08D9390E09D9360E06D9374E021
:104BD0007D9380E08D9390E09D9360E06D9370E015
:104BE0007D9380E08D9390E09D9360E06D9370E005
:104BF0007D9380E48D9390E09D9360E06D9370E0F1
:104C00007D9384E48D9391E09D934FEFECE00E94BF
:104C10001B2CB0E0AEEA60E06D9371E17D9380E023
:104C20008D9390E09D9360E06D9374E07D9380E0C0
:104C30008D9390E09D9360E06D9374E07D9380E4AC
:104C40008D9390E09D9360E06D9370E07D9380E4A0
:104C50008D9390E09D9360E06D9370E17D9384E08F
:104C60008D9390E09D934FEFECE00E941B2CB0E001
:104C7000AEEA60E06D9370E17D9381E08D9390E00A
:104C80009D9360E06D9370E07D9380E48D9390E060
:104C90009D9360E06D9374E07D9380E48D9390E04C
:104CA0009D9360E06D9374E07D9380E08D9390E040
:104CB0009D9360E46D9370E17D9380E08D9390E02F
:104CC0009D934FEFECE00E941B2CB0E0AEEA60E059
:104CD0006D9370E07D9381E58D9390E09D9360E00E
:104CE0006D9370E07D9380E48D9390E09D9360E000
:104CF0006D9370E07D9380E08D9390E09D9360E0F4
:104D00006D9374E07D9380E08D9390E09D9361E4DA
:104D10006D9374E07D9380E08D9390E09D934FEFD1
:104D2000ECE00E941B2CB0E0AEEA60E06D9370E016
:104D30007D9382E58D9390E09D9360E06D9370E0AC
:104D40007D9380E18D9390E09D9360E06D9370E0A2
:104D50007D9380E08D9390E09D9361E06D9370E092
:104D60007D9380E08D9390E09D9361E06D937CE076
:104D70007D9380E08D9390E09D934FEFECE00E9457
:104D80001B2CB0E0AEEA60E06D9370E17D9382E0B1
:104D90008D9390E09D9360E06D9370E07D9380E152
:104DA0008D9390E09D9361E06D9370E07D9380E141
:104DB0008D9390E09D9361E06D9370E07D9380E032
:104DC0008D9390E09D9360E06D9378E17D9380E01A
:104DD0008D9390E09D934FEFECE00E941B2CB0E090
:104DE000AEEA60E86D9370E17D9380E08D9390E092
:104DF0009D9361E06D9370E07D9380E08D9390E0F2
:104E00009D9361E06D9370E07D9380E18D9390E0E0
:104E10009D9360E06D9370E07D9380E18D9390E0D1
:104E20009D9360E06D9370E37D9380E08D9390E0BF
:104E30009D934FEFECE00E941B2CB0E0AEEA65E8DA
:104E40006D9370E07D9380E08D9390E09D9361E0A1
:104E50006D9370E07D9380E08D9390E09D9360E092
:104E60006D9370E07D9380E08D9390E09D9360E082
:104E70006D9370E07D9380E18D9390E09D9360E071
:104E80006D9370E67D9380E18D9390E09D934FEF5D
:104E9000ECE00E941B2CB0E0AEEA65E46D9370E09C
:104EA0007D9380E08D9390E09D9364E06D9370E03E
:104EB0007D9380E08D9390E09D9360E06D9370E032
:104EC0007D9380E08D9390E09D9360E06D9370E41E
:104ED0007D9380E08D9390E09D9360E06D9370E40E
:104EE0007D9381E18D9390E09D934FEFECE00E94E4
:104EF0001B2CB0E0AEEA60E46D9370E17D9380E03E
:104F00008D9390E09D9364E06D9370E07D9380E0DD
:104F10008D9390E09D9364E06D9370E47D9380E0C9
:104F20008D9390E09D9360E06D9370E47D9380E0BD
:104F30008D9390E09D9360E06D9370E17D9381E0AF
:104F40008D9390E09D934FEFECE00E941B2CB0E01E
:104F5000AEEA60E06D9370E17D9384E08D9390E024
:104F60009D9360E06D9370E47D9380E08D9390E07D
:104F70009D9364E06D9370E47D9380E08D9390E069
:104F80009D9364E06D9370E07D9380E08D9390E05D
:104F90009D9360E06D9371E17D9380E08D9390E04F
:104FA0009D934FEFECE00E941B2CB0E0AEEA60E076
:104FB0006D9370E47D9384E08D9391E09D9360E028
:104FC0006D9370E47D9380E08D9390E09D9360E01D
:104FD0006D9370E07D9380E08D9390E09D9364E00D
:104FE0006D9370E07D9380E08D9390E09D9364E1FC
:104FF0006D9371E07D9380E08D9390E09D934FEFF2
:10500000ECE00E941B2CC1E0DC1711F0DA951BCDFF
:105010000895B0E0AAEA20E02D9320E02D9320E04F
:105020002D9320E02D9320E02D9320E02D9320E080
:105030002D9320E02D9320E02D9320E02D9320E070
:105040002D9320E02D9320E02D9320E02D9320E060
:105050002D9320E02D9320E02D9320E02D9320E050
:105060002D9320E02D9320E02D9320E02D9320E040
:105070002D9320E02D93B0E0AEEA20E42C930E9423
:10508000C42AAEEA20E12C930E94C42AA0EB20E1BE
:105090002C930E94C42AAFEA20E42C930E94C42AD5
:1050A000AEEA21E02C930E94C42AA0EB24E02C93CA
:1050B0000E94C42AAFEA24E02C930E94C42AA1EBE8
:1050C00021E02C930E94C42AB0E0AEEA24E02C93A5
:1050D0000E94C42AA0EB21E02C930E94C42AAFEACC
:1050E00021E02C930E94C42AA0EB20E42C930E9480
:1050F000C42AAEEA20E22C930E94C42AAFEA20E13F
:105100002C930E94C42AAEEA22E02C930E94C42A67
:10511000A0EB20E82C930E94C42AB0E0AFEA28E07C
:105120002C930E94C42AAEEA28E02C930E94C42A41
:10513000A0EB22E02C930E94C42AAFEA22E02C9339
:105140000E94C42AAFEA20E82C930E94C42AAEEA47
:1051500020E82C930E94C42AA0EB28E02C930E9404
:10516000C42AA0EB20E22C930E94C42AAFEA20E2DA
:105170002C930E94C42AB0E0AEEA20E42C930E9453
:105180001B2BAEEA20E12C930E941B2BA0EB20E10D
:105190002C930E941B2BAFEA20E42C930E941B2B24
:1051A000AEEA21E02C930E941B2BA0EB24E02C9371
:1051B0000E941B2BAFEA24E02C930E941B2BA1EB37
:1051C00021E02C930E941B2BB0E0AEEA24E02C934C
:1051D0000E941B2BA0EB21E02C930E941B2BAFEA1B
:1051E00021E02C930E941B2BA0EB20E42C930E9427
:1051F0001B2BAEEA20E22C930E941B2BAFEA20E18E
:105200002C930E941B2BAEEA22E02C930E941B2BB6
:10521000A0EB20E82C930E941B2BB0E0AFEA28E023
:105220002C930E941B2BAEEA28E02C930E941B2B90
:10523000A0EB22E02C930E941B2BAFEA22E02C93E0
:105240000E941B2BAFEA20E82C930E941B2BAEEA96
:1052500020E82C930E941B2BA0EB28E02C930E94AB
:105260001B2BA0EB20E22C930E941B2BAFEA20E229
:105270002C930E941B2BB0E0AEEA20E42C930E94FA
:105280006A2BAEEA20E12C930E946A2BA0EB20E16E
:105290002C930E946A2BAFEA20E42C930E946A2B85
:1052A000AEEA21E02C930E946A2BA0EB24E02C9321
:1052B0000E946A2BAFEA24E02C930E946A2BA1EB98
:1052C00021E02C930E946A2BB0E0AEEA24E02C93FC
:1052D0000E946A2BA0EB21E02C930E946A2BAFEA7C
:1052E00021E02C930E946A2BA0EB20E42C930E94D7
:1052F0006A2BAEEA20E22C930E946A2BAFEA20E1EF
:105300002C930E946A2BAEEA22E02C930E946A2B17
:10531000A0EB20E82C930E946A2BB0E0AFEA28E0D3
:105320002C930E946A2BAEEA28E02C930E946A2BF1
:10533000A0EB22E02C930E946A2BAFEA22E02C9390
:105340000E946A2BAFEA20E82C930E946A2BAEEAF7
:1053500020E82C930E946A2BA0EB28E02C930E945B
:105360006A2BA0EB20E22C930E946A2BAFEA20E28A
:105370002C930E946A2BB0E0AEEA20E42C930E94AA
:10538000AF2BAEEA20E12C930E94AF2BA0EB20E1E3
:105390002C930E94AF2BAFEA20E42C930E94AF2BFA
:1053A000AEEA21E02C930E94AF2BA0EB24E02C93DB
:1053B0000E94AF2BAFEA24E02C930E94AF2BA1EB0D
:1053C00021E02C930E94AF2BB0E0AEEA24E02C93B6
:1053D0000E94AF2BA0EB21E02C930E94AF2BAFEAF1
:1053E00021E02C930E94AF2BA0EB20E42C930E9491
:1053F000AF2BAEEA20E22C930E94AF2BAFEA20E164
:105400002C930E94AF2BAEEA22E02C930E94AF2B8C
:10541000A0EB20E82C930E94AF2BB0E0AFEA28E08D
:105420002C930E94AF2BAEEA28E02C930E94AF2B66
:10543000A0EB22E02C930E94AF2BAFEA22E02C934A
:105440000E94AF2BAFEA20E82C930E94AF2BAEEA6C
:1054500020E82C930E94AF2BA0EB28E02C930E9415
:10546000AF2BA0EB20E22C930E94AF2BAFEA20E2FF
:105470002C930E94AF2BB0E0AAEA20E42C930E9468
:10548000EA2BAAEA20E12C930E94EA2BACEA20E165
:105490002C930E94EA2BABEA20E42C930E94EA2B87
:1054A000AAEA21E02C930E94EA2BACEA24E02C9398
:1054B0000E94EA2BABEA24E02C930E94EA2BADEA8F
:1054C00021E02C930E94EA2BB0E0AAEA24E02C937E
:1054D0000E94EA2BACEA21E02C930E94EA2BABEA73
:1054E00021E02C930E94EA2BACEA20E42C930E944A
:1054F000EA2BAAEA20E22C930E94EA2BABEA20E1F5
:105500002C930E94EA2BAAEA22E02C930E94EA2B19
:10551000ACEA20E82C930E94EA2BB0E0ABEA28E04A
:105520002C930E94EA2BAAEA28E02C930E94EA2BF3
:10553000ACEA22E02C930E94EA2BABEA22E02C9307
:105540000E94EA2BABEA20E82C930E94EA2BAAEAFD
:1055500020E82C930E94EA2BACEA28E02C930E94CE
:10556000EA2BACEA20E22C930E94EA2BABEA20E281
:105570002C930E94EA2B0E94EA2B0E94EA2B45E51D
:10558000E4E60E941B2C0895D5E045E5E4E00E9486
:105590001B2CB0E0AAEB6C91B0E0AEEB2C91622B2F
:1055A0006C93B0E0ABEB7C91B0E0AFEB2C91722B45
:1055B0007C93B0E0ACEB8C91B0E0A0EC2C91822B12
:1055C0008C93B0E0ADEB9C91B0E0A1EC2C91922BD0
:1055D0009C93B0E0A6EB6D917D918D919D916D9323
:1055E0007D938D939D93B0E0A2EB6D917D918D9114
:1055F0009D916D937D938D939D93B0E0AEEA6D91F7
:105600007D918D919D916D937D938D939D93B0E050
:10561000AAEA6D917D918D919D916D937D938D936E
:105620009D93C1E0DC1711F0DA95AFCF45E5E4E0DA
:105630000E941B2C0895D4E045E5E4E00E941B2C59
:10564000B0E0A6EB6C91B0E0AAEB2C91622B6C93CE
:10565000B0E0A7EB7C91B0E0ABEB2C91722B7C938C
:10566000B0E0A8EB8C91B0E0ACEB2C91822B8C934A
:10567000B0E0A9EB9C91B0E0ADEB2C91922B9C9308
:10568000B0E0A2EB6D917D918D919D916D937D9395
:105690008D939D93B0E0AEEA6D917D918D919D913A
:1056A0006D937D938D939D93B0E0AAEA6D917D916A
:1056B0008D919D916D937D938D939D93C1E0DC17AA
:1056C00011F0DA95B9CFB0E0AEEA45E5E4E00E942A
:1056D0001B2C0895D3E045E5E4E00E941B2CB0E0CC
:1056E000A2EB6C91B0E0A6EB2C91622B6C93B0E036
:1056F000A3EB7C91B0E0A7EB2C91722B7C93B0E0F4
:10570000A4EB8C91B0E0A8EB2C91822B8C93B0E0B1
:10571000A5EB9C91B0E0A9EB2C91922B9C93B0E06F
:10572000AEEA6D917D918D919D916D937D938D9359
:105730009D93B0E0AAEA6D917D918D919D916D93BD
:105740007D938D939D93C1E0DC1711F0DA95C3CF63
:10575000B0E0AEEA45E5E4E00E941B2C0895D2E0FB
:1057600045E5E8E00E941B2CB0E0AEEA6C91B0E0A9
:10577000A2EB2C91622B6C93B0E0AFEA7C91B0E08D
:10578000A3EB2C91722B7C93B0E0A0EB8C91B0E05A
:10579000A4EB2C91822B8C93B0E0A1EB9C91B0E018
:1057A000A5EB2C91922B9C93B0E0AAEA6D917D9190
:1057B0008D919D916D937D938D939D93C1E0DC17A9
:1057C00011F0DA95CDCFB0E0AEEA45E5E8E00E9411
:1057D0001B2C0895D1E045E5E8E00E941B2CB0E0C9
:1057E000AAEA6C91B0E0AEEA2C91622B6C93B0E027
:1057F000ABEA7C91B0E0AFEA2C91722B7C93B0E0E5
:10580000ACEA8C91B0E0A0EB2C91822B8C93B0E0B1
:10581000ADEA9C91B0E0A1EB2C91922B9C93C1E05E
:10582000DC1711F0DA95D7CFB0E0AAEA45E5E8E059
:105830000E941B2C0895342F0E940D300E94142FBB
:105840000E941B2E0E94222D0E94292CEA95A1F76E
:105850000895532F41E05423541769F4B0E0AEEAA1
:105860006D917D918D919D91B0E0A8EE6D937D93AA
:105870008D939D930AC0B0E0A8EE60E06D9370E058
:105880007D9380E08D9390E09D93F1E00E9406313E
:10589000532F42E05423541769F4B0E0AEEA6D91FF
:1058A0007D918D919D91B0E0A8EE6D937D938D9348
:1058B0009D930AC0B0E0A8EE60E06D9370E07D9328
:1058C00080E08D9390E09D93F2E00E940631532F8B
:1058D00044E05423541769F4B0E0AEEA6D917D9131
:1058E0008D919D91B0E0A8EE6D937D938D939D93E6
:1058F0000AC0B0E0A8EE60E06D9370E07D9380E0B8
:105900008D9390E09D93F4E00E940631532F48E080
:105910005423541769F4B0E0AEEA6D917D918D91F6
:105920009D91B0E0A8EE6D937D938D939D930AC0F9
:10593000B0E0A8EE60E06D9370E07D9380E08D9321
:1059400090E09D93F8E00E940631532F40E15423EC
:10595000541769F4B0E0AEEA6D917D918D919D91FF
:10596000B0E0A8EE6D937D938D939D930AC0B0E057
:10597000A8EE60E06D9370E07D9380E08D9390E001
:105980009D93F0E10E940631532F40E254235417B7
:1059900069F4B0E0AEEA6D917D918D919D91B0E09A
:1059A000A8EE6D937D938D939D930AC0B0E0A8EE11
:1059B00060E06D9370E07D9380E08D9390E09D9327
:1059C000F0E20E940631532F40E45423541769F447
:1059D000B0E0AEEA6D917D918D919D91B0E0A8EE21
:1059E0006D937D938D939D930AC0B0E0A8EE60E027
:1059F0006D9370E07D9380E08D9390E09D93F0E453
:105A00000E940631532F40E85423541769F4B0E044
:105A1000AEEA6D917D918D919D91B0E0A8EE6D9370
:105A20007D938D939D930AC0B0E0A8EE60E06D93E6
:105A300070E07D9380E08D9390E09D93F0E80E946C
:105A400006310895532F41E05423541769F4B0E010
:105A5000A2EB6D917D918D919D91B0E0ACEE6D9337
:105A60007D938D939D930AC0B0E0ACEE60E06D93A2
:105A700070E07D9380E08D9390E09D93F1E00E9433
:105A80001631532F42E05423541769F4B0E0A2EBCF
:105A90006D917D918D919D91B0E0ACEE6D937D9374
:105AA0008D939D930AC0B0E0ACEE60E06D9370E022
:105AB0007D9380E08D9390E09D93F2E00E941631FB
:105AC000532F44E05423541769F4B0E0A2EB6D91D6
:105AD0007D918D919D91B0E0ACEE6D937D938D9312
